{
  "contractName": "ThreaderBase",
  "abi": [
    {
      "inputs": [
        {
          "internalType": "uint256",
          "name": "initialSupply",
          "type": "uint256"
        }
      ],
      "stateMutability": "nonpayable",
      "type": "constructor"
    },
    {
      "anonymous": false,
      "inputs": [
        {
          "indexed": true,
          "internalType": "address",
          "name": "owner",
          "type": "address"
        },
        {
          "indexed": true,
          "internalType": "address",
          "name": "spender",
          "type": "address"
        },
        {
          "indexed": false,
          "internalType": "uint256",
          "name": "value",
          "type": "uint256"
        }
      ],
      "name": "Approval",
      "type": "event"
    },
    {
      "anonymous": false,
      "inputs": [
        {
          "indexed": true,
          "internalType": "address",
          "name": "from",
          "type": "address"
        },
        {
          "indexed": true,
          "internalType": "address",
          "name": "to",
          "type": "address"
        },
        {
          "indexed": false,
          "internalType": "uint256",
          "name": "value",
          "type": "uint256"
        }
      ],
      "name": "Transfer",
      "type": "event"
    },
    {
      "inputs": [
        {
          "internalType": "address",
          "name": "owner",
          "type": "address"
        },
        {
          "internalType": "address",
          "name": "spender",
          "type": "address"
        }
      ],
      "name": "allowance",
      "outputs": [
        {
          "internalType": "uint256",
          "name": "",
          "type": "uint256"
        }
      ],
      "stateMutability": "view",
      "type": "function"
    },
    {
      "inputs": [
        {
          "internalType": "address",
          "name": "spender",
          "type": "address"
        },
        {
          "internalType": "uint256",
          "name": "amount",
          "type": "uint256"
        }
      ],
      "name": "approve",
      "outputs": [
        {
          "internalType": "bool",
          "name": "",
          "type": "bool"
        }
      ],
      "stateMutability": "nonpayable",
      "type": "function"
    },
    {
      "inputs": [
        {
          "internalType": "address",
          "name": "account",
          "type": "address"
        }
      ],
      "name": "balanceOf",
      "outputs": [
        {
          "internalType": "uint256",
          "name": "",
          "type": "uint256"
        }
      ],
      "stateMutability": "view",
      "type": "function"
    },
    {
      "inputs": [],
      "name": "decimals",
      "outputs": [
        {
          "internalType": "uint8",
          "name": "",
          "type": "uint8"
        }
      ],
      "stateMutability": "view",
      "type": "function"
    },
    {
      "inputs": [
        {
          "internalType": "address",
          "name": "spender",
          "type": "address"
        },
        {
          "internalType": "uint256",
          "name": "subtractedValue",
          "type": "uint256"
        }
      ],
      "name": "decreaseAllowance",
      "outputs": [
        {
          "internalType": "bool",
          "name": "",
          "type": "bool"
        }
      ],
      "stateMutability": "nonpayable",
      "type": "function"
    },
    {
      "inputs": [
        {
          "internalType": "address",
          "name": "spender",
          "type": "address"
        },
        {
          "internalType": "uint256",
          "name": "addedValue",
          "type": "uint256"
        }
      ],
      "name": "increaseAllowance",
      "outputs": [
        {
          "internalType": "bool",
          "name": "",
          "type": "bool"
        }
      ],
      "stateMutability": "nonpayable",
      "type": "function"
    },
    {
      "inputs": [],
      "name": "name",
      "outputs": [
        {
          "internalType": "string",
          "name": "",
          "type": "string"
        }
      ],
      "stateMutability": "view",
      "type": "function"
    },
    {
      "inputs": [],
      "name": "symbol",
      "outputs": [
        {
          "internalType": "string",
          "name": "",
          "type": "string"
        }
      ],
      "stateMutability": "view",
      "type": "function"
    },
    {
      "inputs": [],
      "name": "totalSupply",
      "outputs": [
        {
          "internalType": "uint256",
          "name": "",
          "type": "uint256"
        }
      ],
      "stateMutability": "view",
      "type": "function"
    },
    {
      "inputs": [
        {
          "internalType": "address",
          "name": "to",
          "type": "address"
        },
        {
          "internalType": "uint256",
          "name": "amount",
          "type": "uint256"
        }
      ],
      "name": "transfer",
      "outputs": [
        {
          "internalType": "bool",
          "name": "",
          "type": "bool"
        }
      ],
      "stateMutability": "nonpayable",
      "type": "function"
    },
    {
      "inputs": [
        {
          "internalType": "address",
          "name": "from",
          "type": "address"
        },
        {
          "internalType": "address",
          "name": "to",
          "type": "address"
        },
        {
          "internalType": "uint256",
          "name": "amount",
          "type": "uint256"
        }
      ],
      "name": "transferFrom",
      "outputs": [
        {
          "internalType": "bool",
          "name": "",
          "type": "bool"
        }
      ],
      "stateMutability": "nonpayable",
      "type": "function"
    },
    {
      "inputs": [
        {
          "internalType": "string",
          "name": "name",
          "type": "string"
        },
        {
          "internalType": "string",
          "name": "description",
          "type": "string"
        }
      ],
      "name": "foundOrganization",
      "outputs": [],
      "stateMutability": "nonpayable",
      "type": "function"
    },
    {
      "inputs": [
        {
          "internalType": "uint256",
          "name": "id",
          "type": "uint256"
        }
      ],
      "name": "joinOrganization",
      "outputs": [],
      "stateMutability": "nonpayable",
      "type": "function"
    },
    {
      "inputs": [],
      "name": "getOrganizations",
      "outputs": [
        {
          "components": [
            {
              "internalType": "uint256",
              "name": "id",
              "type": "uint256"
            },
            {
              "internalType": "address",
              "name": "founder",
              "type": "address"
            },
            {
              "internalType": "string",
              "name": "name",
              "type": "string"
            },
            {
              "internalType": "string",
              "name": "description",
              "type": "string"
            },
            {
              "components": [
                {
                  "internalType": "uint256",
                  "name": "id",
                  "type": "uint256"
                },
                {
                  "internalType": "string",
                  "name": "title",
                  "type": "string"
                },
                {
                  "internalType": "string",
                  "name": "content",
                  "type": "string"
                },
                {
                  "internalType": "uint256",
                  "name": "likes",
                  "type": "uint256"
                }
              ],
              "internalType": "struct ThreaderBase.Post[]",
              "name": "posts",
              "type": "tuple[]"
            },
            {
              "internalType": "address[]",
              "name": "members",
              "type": "address[]"
            }
          ],
          "internalType": "struct ThreaderBase.Organization[]",
          "name": "",
          "type": "tuple[]"
        }
      ],
      "stateMutability": "view",
      "type": "function"
    },
    {
      "inputs": [
        {
          "internalType": "address",
          "name": "owner",
          "type": "address"
        }
      ],
      "name": "getPostByOwnerAddress",
      "outputs": [
        {
          "internalType": "uint256[]",
          "name": "",
          "type": "uint256[]"
        }
      ],
      "stateMutability": "view",
      "type": "function"
    },
    {
      "inputs": [
        {
          "internalType": "uint256",
          "name": "id",
          "type": "uint256"
        }
      ],
      "name": "getOwnerByPostID",
      "outputs": [
        {
          "internalType": "address",
          "name": "",
          "type": "address"
        }
      ],
      "stateMutability": "view",
      "type": "function"
    },
    {
      "inputs": [
        {
          "internalType": "address",
          "name": "owner",
          "type": "address"
        },
        {
          "internalType": "uint256",
          "name": "id",
          "type": "uint256"
        }
      ],
      "name": "getPostByOwnerAndID",
      "outputs": [
        {
          "internalType": "uint256",
          "name": "",
          "type": "uint256"
        }
      ],
      "stateMutability": "view",
      "type": "function"
    },
    {
      "inputs": [
        {
          "internalType": "uint256",
          "name": "id",
          "type": "uint256"
        }
      ],
      "name": "getIndexOfPost",
      "outputs": [
        {
          "internalType": "uint256",
          "name": "",
          "type": "uint256"
        }
      ],
      "stateMutability": "view",
      "type": "function"
    },
    {
      "inputs": [
        {
          "internalType": "uint256",
          "name": "index",
          "type": "uint256"
        }
      ],
      "name": "getLikedPost",
      "outputs": [
        {
          "internalType": "address",
          "name": "",
          "type": "address"
        }
      ],
      "stateMutability": "view",
      "type": "function"
    },
    {
      "inputs": [
        {
          "internalType": "string",
          "name": "title",
          "type": "string"
        },
        {
          "internalType": "string",
          "name": "content",
          "type": "string"
        }
      ],
      "name": "addNewPost",
      "outputs": [],
      "stateMutability": "nonpayable",
      "type": "function"
    },
    {
      "inputs": [
        {
          "internalType": "address",
          "name": "user",
          "type": "address"
        },
        {
          "internalType": "uint256",
          "name": "id",
          "type": "uint256"
        }
      ],
      "name": "increaseLike",
      "outputs": [],
      "stateMutability": "nonpayable",
      "type": "function"
    },
    {
      "inputs": [],
      "name": "getAllPosts",
      "outputs": [
        {
          "components": [
            {
              "internalType": "uint256",
              "name": "id",
              "type": "uint256"
            },
            {
              "internalType": "string",
              "name": "title",
              "type": "string"
            },
            {
              "internalType": "string",
              "name": "content",
              "type": "string"
            },
            {
              "internalType": "uint256",
              "name": "likes",
              "type": "uint256"
            }
          ],
          "internalType": "struct ThreaderBase.Post[]",
          "name": "",
          "type": "tuple[]"
        }
      ],
      "stateMutability": "view",
      "type": "function"
    }
  ],
  "bytecode": "0x60806040523480156200001157600080fd5b50604051620034b2380380620034b283398181016040528101906200003791906200061b565b806040518060400160405280600881526020017f54687265616465720000000000000000000000000000000000000000000000008152506040518060400160405280600381526020017f54484400000000000000000000000000000000000000000000000000000000008152508160039080519060200190620000bc9291906200052b565b508060049080519060200190620000d59291906200052b565b505050620000ea3382620003a860201b60201c565b5033600560006101000a81548173ffffffffffffffffffffffffffffffffffffffff021916908373ffffffffffffffffffffffffffffffffffffffff1602179055506000429050600060405180608001604052808381526020016040518060400160405280600a81526020017f466972737420506f73740000000000000000000000000000000000000000000081525081526020016040518060400160405280601881526020017f54686973206973206d7920666972737420636f6e74656e7400000000000000008152508152602001600081525090506006819080600181540180825580915050600190039060005260206000209060040201600090919091909150600082015181600001556020820151816001019080519060200190620002159291906200052b565b506040820151816002019080519060200190620002349291906200052b565b50606082015181600301555050336011600084815260200190815260200160002060006101000a81548173ffffffffffffffffffffffffffffffffffffffff021916908373ffffffffffffffffffffffffffffffffffffffff1602179055506001600680549050620002a791906200067c565b600e6000848152602001908152602001600020819055506001600680549050620002d291906200067c565b601060003373ffffffffffffffffffffffffffffffffffffffff1673ffffffffffffffffffffffffffffffffffffffff168152602001908152602001600020600084815260200190815260200160002081905550600f60003373ffffffffffffffffffffffffffffffffffffffff1673ffffffffffffffffffffffffffffffffffffffff16815260200190815260200160002060016006805490506200037991906200067c565b90806001815401808255809150506001900390600052602060002001600090919091909150555050506200082a565b600073ffffffffffffffffffffffffffffffffffffffff168273ffffffffffffffffffffffffffffffffffffffff1614156200041b576040517f08c379a0000000000000000000000000000000000000000000000000000000008152600401620004129062000718565b60405180910390fd5b6200042f600083836200052160201b60201c565b80600260008282546200044391906200073a565b92505081905550806000808473ffffffffffffffffffffffffffffffffffffffff1673ffffffffffffffffffffffffffffffffffffffff16815260200190815260200160002060008282546200049a91906200073a565b925050819055508173ffffffffffffffffffffffffffffffffffffffff16600073ffffffffffffffffffffffffffffffffffffffff167fddf252ad1be2c89b69c2b068fc378daa952ba7f163c4a11628f55a4df523b3ef83604051620005019190620007a8565b60405180910390a36200051d600083836200052660201b60201c565b5050565b505050565b505050565b8280546200053990620007f4565b90600052602060002090601f0160209004810192826200055d5760008555620005a9565b82601f106200057857805160ff1916838001178555620005a9565b82800160010185558215620005a9579182015b82811115620005a85782518255916020019190600101906200058b565b5b509050620005b89190620005bc565b5090565b5b80821115620005d7576000816000905550600101620005bd565b5090565b600080fd5b6000819050919050565b620005f581620005e0565b81146200060157600080fd5b50565b6000815190506200061581620005ea565b92915050565b600060208284031215620006345762000633620005db565b5b6000620006448482850162000604565b91505092915050565b7f4e487b7100000000000000000000000000000000000000000000000000000000600052601160045260246000fd5b60006200068982620005e0565b91506200069683620005e0565b925082821015620006ac57620006ab6200064d565b5b828203905092915050565b600082825260208201905092915050565b7f45524332303a206d696e7420746f20746865207a65726f206164647265737300600082015250565b600062000700601f83620006b7565b91506200070d82620006c8565b602082019050919050565b600060208201905081810360008301526200073381620006f1565b9050919050565b60006200074782620005e0565b91506200075483620005e0565b9250827fffffffffffffffffffffffffffffffffffffffffffffffffffffffffffffffff038211156200078c576200078b6200064d565b5b828201905092915050565b620007a281620005e0565b82525050565b6000602082019050620007bf600083018462000797565b92915050565b7f4e487b7100000000000000000000000000000000000000000000000000000000600052602260045260246000fd5b600060028204905060018216806200080d57607f821691505b60208210811415620008245762000823620007c5565b5b50919050565b612c78806200083a6000396000f3fe608060405234801561001057600080fd5b50600436106101425760003560e01c806339509351116100b857806395d89b411161007c57806395d89b41146103c35780639754a3a8146103e1578063a457c2d7146103ff578063a9059cbb1461042f578063dd62ed3e1461045f578063f49870fe1461048f57610142565b806339509351146102e75780633a3a1ec51461031757806344699483146103335780635e2c1fa61461036357806370a082311461039357610142565b806318160ddd1161010a57806318160ddd146101fd57806323b872dd1461021b5780632c2452ef1461024b578063305611001461027b578063313ce56714610299578063340a8fed146102b757610142565b806306fdde0314610147578063095ea7b3146101655780630d2de7a3146101955780630e20f01b146101b157806311430f3f146101cd575b600080fd5b61014f6104ab565b60405161015c9190611cec565b60405180910390f35b61017f600480360381019061017a9190611db6565b61053d565b60405161018c9190611e11565b60405180910390f35b6101af60048036038101906101aa9190611f61565b610560565b005b6101cb60048036038101906101c69190611fd9565b610671565b005b6101e760048036038101906101e29190611fd9565b6107fc565b6040516101f49190612015565b60405180910390f35b610205610819565b6040516102129190612015565b60405180910390f35b61023560048036038101906102309190612030565b610823565b6040516102429190611e11565b60405180910390f35b61026560048036038101906102609190612083565b610852565b604051610272919061216e565b60405180910390f35b6102836108e9565b6040516102909190612306565b60405180910390f35b6102a1610a80565b6040516102ae9190612344565b60405180910390f35b6102d160048036038101906102cc9190611db6565b610a89565b6040516102de9190612015565b60405180910390f35b61030160048036038101906102fc9190611db6565b610ae4565b60405161030e9190611e11565b60405180910390f35b610331600480360381019061032c9190611f61565b610b8e565b005b61034d60048036038101906103489190611fd9565b610dfa565b60405161035a919061236e565b60405180910390f35b61037d60048036038101906103789190611fd9565b610e37565b60405161038a919061236e565b60405180910390f35b6103ad60048036038101906103a89190612083565b610e74565b6040516103ba9190612015565b60405180910390f35b6103cb610ebc565b6040516103d89190611cec565b60405180910390f35b6103e9610f4e565b6040516103f6919061262d565b60405180910390f35b61041960048036038101906104149190611db6565b611356565b6040516104269190611e11565b60405180910390f35b61044960048036038101906104449190611db6565b611440565b6040516104569190611e11565b60405180910390f35b6104796004803603810190610474919061264f565b611463565b6040516104869190612015565b60405180910390f35b6104a960048036038101906104a49190611db6565b6114ea565b005b6060600380546104ba906126be565b80601f01602080910402602001604051908101604052809291908181526020018280546104e6906126be565b80156105335780601f1061050857610100808354040283529160200191610533565b820191906000526020600020905b81548152906001019060200180831161051657829003601f168201915b5050505050905090565b600080610548611643565b905061055581858561164b565b600191505092915050565b6000429050600c6000828152602001908152602001600020339080600181540180825580915050600190039060005260206000200160009091909190916101000a81548173ffffffffffffffffffffffffffffffffffffffff021916908373ffffffffffffffffffffffffffffffffffffffff1602179055506001600860008381526020019081526020016000208190555060006009600083815260200190815260200160002060003373ffffffffffffffffffffffffffffffffffffffff1673ffffffffffffffffffffffffffffffffffffffff168152602001908152602001600020819055506000600a60008381526020019081526020016000208190555061066c336020611816565b505050565b6000600a6000838152602001908152602001600020549050600c6000838152602001908152602001600020339080600181540180825580915050600190039060005260206000200160009091909190916101000a81548173ffffffffffffffffffffffffffffffffffffffff021916908373ffffffffffffffffffffffffffffffffffffffff160217905550600c600083815260200190815260200160002060078281548110610724576107236126f0565b5b9060005260206000209060060201600501908054610743929190611b5e565b506001600860008481526020019081526020016000206000828254610768919061274e565b92505081905550600160078281548110610785576107846126f0565b5b9060005260206000209060060201600501805490506107a491906127a4565b6009600084815260200190815260200160002060003373ffffffffffffffffffffffffffffffffffffffff1673ffffffffffffffffffffffffffffffffffffffff168152602001908152602001600020819055505050565b6000600e6000838152602001908152602001600020549050919050565b6000600254905090565b60008061082e611643565b905061083b858285611847565b6108468585856118d3565b60019150509392505050565b6060600f60008373ffffffffffffffffffffffffffffffffffffffff1673ffffffffffffffffffffffffffffffffffffffff1681526020019081526020016000208054806020026020016040519081016040528092919081815260200182805480156108dd57602002820191906000526020600020905b8154815260200190600101908083116108c9575b50505050509050919050565b60606006805480602002602001604051908101604052809291908181526020016000905b82821015610a7757838290600052602060002090600402016040518060800160405290816000820154815260200160018201805461094a906126be565b80601f0160208091040260200160405190810160405280929190818152602001828054610976906126be565b80156109c35780601f10610998576101008083540402835291602001916109c3565b820191906000526020600020905b8154815290600101906020018083116109a657829003601f168201915b505050505081526020016002820180546109dc906126be565b80601f0160208091040260200160405190810160405280929190818152602001828054610a08906126be565b8015610a555780601f10610a2a57610100808354040283529160200191610a55565b820191906000526020600020905b815481529060010190602001808311610a3857829003601f168201915b505050505081526020016003820154815250508152602001906001019061090d565b50505050905090565b60006012905090565b6000601060008473ffffffffffffffffffffffffffffffffffffffff1673ffffffffffffffffffffffffffffffffffffffff168152602001908152602001600020600083815260200190815260200160002054905092915050565b600080610aef611643565b9050610b83818585600160008673ffffffffffffffffffffffffffffffffffffffff1673ffffffffffffffffffffffffffffffffffffffff16815260200190815260200160002060008973ffffffffffffffffffffffffffffffffffffffff1673ffffffffffffffffffffffffffffffffffffffff16815260200190815260200160002054610b7e919061274e565b61164b565b600191505092915050565b600042905060006040518060800160405280838152602001858152602001848152602001600a81525090506006819080600181540180825580915050600190039060005260206000209060040201600090919091909150600082015181600001556020820151816001019080519060200190610c0b929190611bb0565b506040820151816002019080519060200190610c28929190611bb0565b506060820151816003015550506001600680549050610c4791906127a4565b600e600084815260200190815260200160002081905550600f60003373ffffffffffffffffffffffffffffffffffffffff1673ffffffffffffffffffffffffffffffffffffffff1681526020019081526020016000206001600680549050610caf91906127a4565b9080600181540180825580915050600190039060005260206000200160009091909190915055336011600084815260200190815260200160002060006101000a81548173ffffffffffffffffffffffffffffffffffffffff021916908373ffffffffffffffffffffffffffffffffffffffff1602179055506001600680549050610d3991906127a4565b601060003373ffffffffffffffffffffffffffffffffffffffff1673ffffffffffffffffffffffffffffffffffffffff1681526020019081526020016000206000848152602001908152602001600020819055506001600f60003373ffffffffffffffffffffffffffffffffffffffff1673ffffffffffffffffffffffffffffffffffffffff168152602001908152602001600020805490501415610de857610de3336075611816565b610df4565b610df333601b611816565b5b50505050565b6000600d600083815260200190815260200160002060009054906101000a900473ffffffffffffffffffffffffffffffffffffffff169050919050565b60006011600083815260200190815260200160002060009054906101000a900473ffffffffffffffffffffffffffffffffffffffff169050919050565b60008060008373ffffffffffffffffffffffffffffffffffffffff1673ffffffffffffffffffffffffffffffffffffffff168152602001908152602001600020549050919050565b606060048054610ecb906126be565b80601f0160208091040260200160405190810160405280929190818152602001828054610ef7906126be565b8015610f445780601f10610f1957610100808354040283529160200191610f44565b820191906000526020600020905b815481529060010190602001808311610f2757829003601f168201915b5050505050905090565b60606007805480602002602001604051908101604052809291908181526020016000905b8282101561134d57838290600052602060002090600602016040518060c0016040529081600082015481526020016001820160009054906101000a900473ffffffffffffffffffffffffffffffffffffffff1673ffffffffffffffffffffffffffffffffffffffff1673ffffffffffffffffffffffffffffffffffffffff168152602001600282018054611005906126be565b80601f0160208091040260200160405190810160405280929190818152602001828054611031906126be565b801561107e5780601f106110535761010080835404028352916020019161107e565b820191906000526020600020905b81548152906001019060200180831161106157829003601f168201915b50505050508152602001600382018054611097906126be565b80601f01602080910402602001604051908101604052809291908181526020018280546110c3906126be565b80156111105780601f106110e557610100808354040283529160200191611110565b820191906000526020600020905b8154815290600101906020018083116110f357829003601f168201915b5050505050815260200160048201805480602002602001604051908101604052809291908181526020016000905b828210156112a857838290600052602060002090600402016040518060800160405290816000820154815260200160018201805461117b906126be565b80601f01602080910402602001604051908101604052809291908181526020018280546111a7906126be565b80156111f45780601f106111c9576101008083540402835291602001916111f4565b820191906000526020600020905b8154815290600101906020018083116111d757829003601f168201915b5050505050815260200160028201805461120d906126be565b80601f0160208091040260200160405190810160405280929190818152602001828054611239906126be565b80156112865780601f1061125b57610100808354040283529160200191611286565b820191906000526020600020905b81548152906001019060200180831161126957829003601f168201915b505050505081526020016003820154815250508152602001906001019061113e565b5050505081526020016005820180548060200260200160405190810160405280929190818152602001828054801561133557602002820191906000526020600020905b8160009054906101000a900473ffffffffffffffffffffffffffffffffffffffff1673ffffffffffffffffffffffffffffffffffffffff16815260200190600101908083116112eb575b50505050508152505081526020019060010190610f72565b50505050905090565b600080611361611643565b90506000600160008373ffffffffffffffffffffffffffffffffffffffff1673ffffffffffffffffffffffffffffffffffffffff16815260200190815260200160002060008673ffffffffffffffffffffffffffffffffffffffff1673ffffffffffffffffffffffffffffffffffffffff16815260200190815260200160002054905083811015611427576040517f08c379a000000000000000000000000000000000000000000000000000000000815260040161141e9061284a565b60405180910390fd5b611434828686840361164b565b60019250505092915050565b60008061144b611643565b90506114588185856118d3565b600191505092915050565b6000600160008473ffffffffffffffffffffffffffffffffffffffff1673ffffffffffffffffffffffffffffffffffffffff16815260200190815260200160002060008373ffffffffffffffffffffffffffffffffffffffff1673ffffffffffffffffffffffffffffffffffffffff16815260200190815260200160002054905092915050565b60006114f5826107fc565b90503373ffffffffffffffffffffffffffffffffffffffff16600d600083815260200190815260200160002060009054906101000a900473ffffffffffffffffffffffffffffffffffffffff1673ffffffffffffffffffffffffffffffffffffffff161415611599576040517f08c379a0000000000000000000000000000000000000000000000000000000008152600401611590906128dc565b60405180910390fd5b6001600682815481106115af576115ae6126f0565b5b906000526020600020906004020160030160008282546115cf919061274e565b9250508190555033600d600083815260200190815260200160002060006101000a81548173ffffffffffffffffffffffffffffffffffffffff021916908373ffffffffffffffffffffffffffffffffffffffff160217905550611633336001611816565b61163e836001611816565b505050565b600033905090565b600073ffffffffffffffffffffffffffffffffffffffff168373ffffffffffffffffffffffffffffffffffffffff1614156116bb576040517f08c379a00000000000000000000000000000000000000000000000000000000081526004016116b29061296e565b60405180910390fd5b600073ffffffffffffffffffffffffffffffffffffffff168273ffffffffffffffffffffffffffffffffffffffff16141561172b576040517f08c379a000000000000000000000000000000000000000000000000000000000815260040161172290612a00565b60405180910390fd5b80600160008573ffffffffffffffffffffffffffffffffffffffff1673ffffffffffffffffffffffffffffffffffffffff16815260200190815260200160002060008473ffffffffffffffffffffffffffffffffffffffff1673ffffffffffffffffffffffffffffffffffffffff168152602001908152602001600020819055508173ffffffffffffffffffffffffffffffffffffffff168373ffffffffffffffffffffffffffffffffffffffff167f8c5be1e5ebec7d5bd14f71427d1e84f3dd0314c0f7b2291e5b200ac8c7c3b925836040516118099190612015565b60405180910390a3505050565b611843600560009054906101000a900473ffffffffffffffffffffffffffffffffffffffff1683836118d3565b5050565b60006118538484611463565b90507fffffffffffffffffffffffffffffffffffffffffffffffffffffffffffffffff81146118cd57818110156118bf576040517f08c379a00000000000000000000000000000000000000000000000000000000081526004016118b690612a6c565b60405180910390fd5b6118cc848484840361164b565b5b50505050565b600073ffffffffffffffffffffffffffffffffffffffff168373ffffffffffffffffffffffffffffffffffffffff161415611943576040517f08c379a000000000000000000000000000000000000000000000000000000000815260040161193a90612afe565b60405180910390fd5b600073ffffffffffffffffffffffffffffffffffffffff168273ffffffffffffffffffffffffffffffffffffffff1614156119b3576040517f08c379a00000000000000000000000000000000000000000000000000000000081526004016119aa90612b90565b60405180910390fd5b6119be838383611b54565b60008060008573ffffffffffffffffffffffffffffffffffffffff1673ffffffffffffffffffffffffffffffffffffffff16815260200190815260200160002054905081811015611a44576040517f08c379a0000000000000000000000000000000000000000000000000000000008152600401611a3b90612c22565b60405180910390fd5b8181036000808673ffffffffffffffffffffffffffffffffffffffff1673ffffffffffffffffffffffffffffffffffffffff16815260200190815260200160002081905550816000808573ffffffffffffffffffffffffffffffffffffffff1673ffffffffffffffffffffffffffffffffffffffff1681526020019081526020016000206000828254611ad7919061274e565b925050819055508273ffffffffffffffffffffffffffffffffffffffff168473ffffffffffffffffffffffffffffffffffffffff167fddf252ad1be2c89b69c2b068fc378daa952ba7f163c4a11628f55a4df523b3ef84604051611b3b9190612015565b60405180910390a3611b4e848484611b59565b50505050565b505050565b505050565b828054828255906000526020600020908101928215611b9f5760005260206000209182015b82811115611b9e578254825591600101919060010190611b83565b5b509050611bac9190611c36565b5090565b828054611bbc906126be565b90600052602060002090601f016020900481019282611bde5760008555611c25565b82601f10611bf757805160ff1916838001178555611c25565b82800160010185558215611c25579182015b82811115611c24578251825591602001919060010190611c09565b5b509050611c329190611c36565b5090565b5b80821115611c4f576000816000905550600101611c37565b5090565b600081519050919050565b600082825260208201905092915050565b60005b83811015611c8d578082015181840152602081019050611c72565b83811115611c9c576000848401525b50505050565b6000601f19601f8301169050919050565b6000611cbe82611c53565b611cc88185611c5e565b9350611cd8818560208601611c6f565b611ce181611ca2565b840191505092915050565b60006020820190508181036000830152611d068184611cb3565b905092915050565b6000604051905090565b600080fd5b600080fd5b600073ffffffffffffffffffffffffffffffffffffffff82169050919050565b6000611d4d82611d22565b9050919050565b611d5d81611d42565b8114611d6857600080fd5b50565b600081359050611d7a81611d54565b92915050565b6000819050919050565b611d9381611d80565b8114611d9e57600080fd5b50565b600081359050611db081611d8a565b92915050565b60008060408385031215611dcd57611dcc611d18565b5b6000611ddb85828601611d6b565b9250506020611dec85828601611da1565b9150509250929050565b60008115159050919050565b611e0b81611df6565b82525050565b6000602082019050611e266000830184611e02565b92915050565b600080fd5b600080fd5b7f4e487b7100000000000000000000000000000000000000000000000000000000600052604160045260246000fd5b611e6e82611ca2565b810181811067ffffffffffffffff82111715611e8d57611e8c611e36565b5b80604052505050565b6000611ea0611d0e565b9050611eac8282611e65565b919050565b600067ffffffffffffffff821115611ecc57611ecb611e36565b5b611ed582611ca2565b9050602081019050919050565b82818337600083830152505050565b6000611f04611eff84611eb1565b611e96565b905082815260208101848484011115611f2057611f1f611e31565b5b611f2b848285611ee2565b509392505050565b600082601f830112611f4857611f47611e2c565b5b8135611f58848260208601611ef1565b91505092915050565b60008060408385031215611f7857611f77611d18565b5b600083013567ffffffffffffffff811115611f9657611f95611d1d565b5b611fa285828601611f33565b925050602083013567ffffffffffffffff811115611fc357611fc2611d1d565b5b611fcf85828601611f33565b9150509250929050565b600060208284031215611fef57611fee611d18565b5b6000611ffd84828501611da1565b91505092915050565b61200f81611d80565b82525050565b600060208201905061202a6000830184612006565b92915050565b60008060006060848603121561204957612048611d18565b5b600061205786828701611d6b565b935050602061206886828701611d6b565b925050604061207986828701611da1565b9150509250925092565b60006020828403121561209957612098611d18565b5b60006120a784828501611d6b565b91505092915050565b600081519050919050565b600082825260208201905092915050565b6000819050602082019050919050565b6120e581611d80565b82525050565b60006120f783836120dc565b60208301905092915050565b6000602082019050919050565b600061211b826120b0565b61212581856120bb565b9350612130836120cc565b8060005b8381101561216157815161214888826120eb565b975061215383612103565b925050600181019050612134565b5085935050505092915050565b600060208201905081810360008301526121888184612110565b905092915050565b600081519050919050565b600082825260208201905092915050565b6000819050602082019050919050565b600082825260208201905092915050565b60006121d882611c53565b6121e281856121bc565b93506121f2818560208601611c6f565b6121fb81611ca2565b840191505092915050565b600060808301600083015161221e60008601826120dc565b506020830151848203602086015261223682826121cd565b9150506040830151848203604086015261225082826121cd565b915050606083015161226560608601826120dc565b508091505092915050565b600061227c8383612206565b905092915050565b6000602082019050919050565b600061229c82612190565b6122a6818561219b565b9350836020820285016122b8856121ac565b8060005b858110156122f457848403895281516122d58582612270565b94506122e083612284565b925060208a019950506001810190506122bc565b50829750879550505050505092915050565b600060208201905081810360008301526123208184612291565b905092915050565b600060ff82169050919050565b61233e81612328565b82525050565b60006020820190506123596000830184612335565b92915050565b61236881611d42565b82525050565b6000602082019050612383600083018461235f565b92915050565b600081519050919050565b600082825260208201905092915050565b6000819050602082019050919050565b6123be81611d42565b82525050565b600082825260208201905092915050565b60006123e082612190565b6123ea81856123c4565b9350836020820285016123fc856121ac565b8060005b8581101561243857848403895281516124198582612270565b945061242483612284565b925060208a01995050600181019050612400565b50829750879550505050505092915050565b600081519050919050565b600082825260208201905092915050565b6000819050602082019050919050565b600061248283836123b5565b60208301905092915050565b6000602082019050919050565b60006124a68261244a565b6124b08185612455565b93506124bb83612466565b8060005b838110156124ec5781516124d38882612476565b97506124de8361248e565b9250506001810190506124bf565b5085935050505092915050565b600060c08301600083015161251160008601826120dc565b50602083015161252460208601826123b5565b506040830151848203604086015261253c82826121cd565b9150506060830151848203606086015261255682826121cd565b9150506080830151848203608086015261257082826123d5565b91505060a083015184820360a086015261258a828261249b565b9150508091505092915050565b60006125a383836124f9565b905092915050565b6000602082019050919050565b60006125c382612389565b6125cd8185612394565b9350836020820285016125df856123a5565b8060005b8581101561261b57848403895281516125fc8582612597565b9450612607836125ab565b925060208a019950506001810190506125e3565b50829750879550505050505092915050565b6000602082019050818103600083015261264781846125b8565b905092915050565b6000806040838503121561266657612665611d18565b5b600061267485828601611d6b565b925050602061268585828601611d6b565b9150509250929050565b7f4e487b7100000000000000000000000000000000000000000000000000000000600052602260045260246000fd5b600060028204905060018216806126d657607f821691505b602082108114156126ea576126e961268f565b5b50919050565b7f4e487b7100000000000000000000000000000000000000000000000000000000600052603260045260246000fd5b7f4e487b7100000000000000000000000000000000000000000000000000000000600052601160045260246000fd5b600061275982611d80565b915061276483611d80565b9250827fffffffffffffffffffffffffffffffffffffffffffffffffffffffffffffffff038211156127995761279861271f565b5b828201905092915050565b60006127af82611d80565b91506127ba83611d80565b9250828210156127cd576127cc61271f565b5b828203905092915050565b7f45524332303a2064656372656173656420616c6c6f77616e63652062656c6f7760008201527f207a65726f000000000000000000000000000000000000000000000000000000602082015250565b6000612834602583611c5e565b915061283f826127d8565b604082019050919050565b6000602082019050818103600083015261286381612827565b9050919050565b7f54686973206163636f756e7420616c7265616479206c696b656420746869732060008201527f706f737400000000000000000000000000000000000000000000000000000000602082015250565b60006128c6602483611c5e565b91506128d18261286a565b604082019050919050565b600060208201905081810360008301526128f5816128b9565b9050919050565b7f45524332303a20617070726f76652066726f6d20746865207a65726f2061646460008201527f7265737300000000000000000000000000000000000000000000000000000000602082015250565b6000612958602483611c5e565b9150612963826128fc565b604082019050919050565b600060208201905081810360008301526129878161294b565b9050919050565b7f45524332303a20617070726f766520746f20746865207a65726f20616464726560008201527f7373000000000000000000000000000000000000000000000000000000000000602082015250565b60006129ea602283611c5e565b91506129f58261298e565b604082019050919050565b60006020820190508181036000830152612a19816129dd565b9050919050565b7f45524332303a20696e73756666696369656e7420616c6c6f77616e6365000000600082015250565b6000612a56601d83611c5e565b9150612a6182612a20565b602082019050919050565b60006020820190508181036000830152612a8581612a49565b9050919050565b7f45524332303a207472616e736665722066726f6d20746865207a65726f20616460008201527f6472657373000000000000000000000000000000000000000000000000000000602082015250565b6000612ae8602583611c5e565b9150612af382612a8c565b604082019050919050565b60006020820190508181036000830152612b1781612adb565b9050919050565b7f45524332303a207472616e7366657220746f20746865207a65726f206164647260008201527f6573730000000000000000000000000000000000000000000000000000000000602082015250565b6000612b7a602383611c5e565b9150612b8582612b1e565b604082019050919050565b60006020820190508181036000830152612ba981612b6d565b9050919050565b7f45524332303a207472616e7366657220616d6f756e742065786365656473206260008201527f616c616e63650000000000000000000000000000000000000000000000000000602082015250565b6000612c0c602683611c5e565b9150612c1782612bb0565b604082019050919050565b60006020820190508181036000830152612c3b81612bff565b905091905056fea2646970667358221220966fe05b2a09194d075392a8b209acb67cd44a7107603c17d74605aef61f135b64736f6c634300080b0033",
  "immutableReferences": {},
  "source": "// SPDX-License-Identifier: MIT\npragma solidity >=0.4.21 <8.10.0;\n\nimport \"./ThreaderCoin.sol\";\n\ncontract ThreaderBase is ThreaderCoin {\n    address private ownerAddress;\n\n    struct Post {\n        uint256 id;\n        string title;\n        string content;\n        uint256 likes;\n    }\n\n    struct Organization {\n        uint256 id;\n        address founder;\n        string name;\n        string description;\n        Post[] posts;\n        address[] members;\n    }\n\n    modifier checkIfTokensAvailable() {\n        require(balanceOf(msg.sender) > 0);\n        _;\n    }\n\n    constructor(uint256 initialSupply) ThreaderCoin(initialSupply) {\n        ownerAddress = msg.sender;\n        uint256 time = block.timestamp;\n        Post memory initialPost = Post(\n            time,\n            \"First Post\",\n            \"This is my first content\",\n            0\n        );\n\n        allPosts.push(initialPost);\n        ownerByPostId[time] = msg.sender;\n        indexOfPostById[time] = allPosts.length - 1;\n        postsByOwnerAndID[msg.sender][time] = (allPosts.length - 1);\n        postsByOwnerAddress[msg.sender].push(allPosts.length - 1);\n    }\n\n    Post[] allPosts;\n    Organization[] organizations;\n    mapping(uint256 => uint256) numberOfOrgMember;\n    mapping(uint256 => mapping(address => uint256)) indexOfOrgMember;\n    mapping(uint256 => uint256) indexOfOrg;\n    mapping(uint256 => Post[]) postsOfOrg;\n    mapping(uint256 => address[]) membersOfOrg;\n\n    mapping(uint256 => address) likedPost;\n    mapping(uint256 => uint256) indexOfPostById;\n    mapping(address => uint256[]) postsByOwnerAddress;\n    mapping(address => mapping(uint256 => uint256)) postsByOwnerAndID;\n    mapping(uint256 => address) ownerByPostId;\n\n    function foundOrganization(string memory name, string memory description)\n        public\n    {\n        uint256 time = block.timestamp;\n        membersOfOrg[time].push(msg.sender);\n        // Post[] storage initP = postsOfOrg[time] = [\n        //         Post(\n        //             time,\n        //             \"Welcome To this community\",\n        //             \"I hope you have fun a lot\",\n        //             0\n        //         )];\n        // Organization memory newOrg = Organization({\n        //     id: time,\n        //     founder: msg.sender,\n        //     name: name,\n        //     description: description,\n        //     posts: initP,\n        //     members: membersOfOrg[time]\n        // });\n        numberOfOrgMember[time] = 1;\n        indexOfOrgMember[time][msg.sender] = 0;\n        indexOfOrg[time] = 0;\n        // organizations.push(newOrg);\n        _giveTokenForActions(msg.sender, 5 * 10^18);\n    }\n\n    function joinOrganization(uint256 id) public {\n        uint256 index = indexOfOrg[id];\n        membersOfOrg[id].push(msg.sender);\n        organizations[index].members = membersOfOrg[id];\n        numberOfOrgMember[id] += 1;\n        indexOfOrgMember[id][msg.sender] = organizations[index].members.length - 1;\n    }\n\n    function getOrganizations() public view returns (Organization[] memory){\n        return organizations;\n    }\n\n    function getPostByOwnerAddress(address owner)\n        public\n        view\n        returns (uint256[] memory)\n    {\n        return postsByOwnerAddress[owner];\n    }\n\n    function getOwnerByPostID(uint256 id) public view returns (address) {\n        return ownerByPostId[id];\n    }\n\n    function getPostByOwnerAndID(address owner, uint256 id)\n        public\n        view\n        returns (uint256)\n    {\n        return postsByOwnerAndID[owner][id];\n    }\n\n    function getIndexOfPost(uint256 id) public view returns (uint256) {\n        return indexOfPostById[id];\n    }\n\n    function getLikedPost(uint256 index) public view returns (address) {\n        return likedPost[index];\n    }\n\n    function addNewPost(string memory title, string memory content) public {\n        uint256 time = block.timestamp;\n        Post memory newPost = Post(time, title, content, 10);\n        allPosts.push(newPost);\n        indexOfPostById[time] = allPosts.length - 1;\n        postsByOwnerAddress[msg.sender].push(allPosts.length - 1);\n        ownerByPostId[time] = msg.sender;\n        postsByOwnerAndID[msg.sender][time] = allPosts.length - 1;\n        if (postsByOwnerAddress[msg.sender].length == 1) {\n            _giveTokenForActions(msg.sender, 10 * 10^17);\n        } else {\n            _giveTokenForActions(msg.sender, 1 * 10^17);\n        }\n    }\n\n    function increaseLike(address user, uint256 id) public {\n        uint256 index = getIndexOfPost(id);\n        require(\n            likedPost[index] != msg.sender,\n            \"This account already liked this post\"\n        );\n        allPosts[index].likes += 1;\n        likedPost[index] = msg.sender;\n        _giveTokenForActions(msg.sender, 1);\n        _giveTokenForActions(user, 1);\n    }\n\n    function _giveTokenForActions(address user, uint256 amount) private {\n        _transfer(ownerAddress, user, amount);\n    }\n\n    function getAllPosts() public view returns (Post[] memory) {\n        return allPosts;\n    }\n}\n",
  "sourcePath": "/Users/christian/block_chain_app/thread_web/contracts/ThreaderBase.sol",
  "compiler": {
    "name": "solc",
    "version": "0.8.11+commit.d7f03943.Emscripten.clang"
  },
  "schemaVersion": "3.4.6",
  "updatedAt": "2022-04-25T04:48:09.392Z",
  "devdoc": {
    "kind": "dev",
    "methods": {
      "allowance(address,address)": {
        "details": "See {IERC20-allowance}."
      },
      "approve(address,uint256)": {
        "details": "See {IERC20-approve}. NOTE: If `amount` is the maximum `uint256`, the allowance is not updated on `transferFrom`. This is semantically equivalent to an infinite approval. Requirements: - `spender` cannot be the zero address."
      },
      "balanceOf(address)": {
        "details": "See {IERC20-balanceOf}."
      },
      "decimals()": {
        "details": "Returns the number of decimals used to get its user representation. For example, if `decimals` equals `2`, a balance of `505` tokens should be displayed to a user as `5.05` (`505 / 10 ** 2`). Tokens usually opt for a value of 18, imitating the relationship between Ether and Wei. This is the value {ERC20} uses, unless this function is overridden; NOTE: This information is only used for _display_ purposes: it in no way affects any of the arithmetic of the contract, including {IERC20-balanceOf} and {IERC20-transfer}."
      },
      "decreaseAllowance(address,uint256)": {
        "details": "Atomically decreases the allowance granted to `spender` by the caller. This is an alternative to {approve} that can be used as a mitigation for problems described in {IERC20-approve}. Emits an {Approval} event indicating the updated allowance. Requirements: - `spender` cannot be the zero address. - `spender` must have allowance for the caller of at least `subtractedValue`."
      },
      "increaseAllowance(address,uint256)": {
        "details": "Atomically increases the allowance granted to `spender` by the caller. This is an alternative to {approve} that can be used as a mitigation for problems described in {IERC20-approve}. Emits an {Approval} event indicating the updated allowance. Requirements: - `spender` cannot be the zero address."
      },
      "name()": {
        "details": "Returns the name of the token."
      },
      "symbol()": {
        "details": "Returns the symbol of the token, usually a shorter version of the name."
      },
      "totalSupply()": {
        "details": "See {IERC20-totalSupply}."
      },
      "transfer(address,uint256)": {
        "details": "See {IERC20-transfer}. Requirements: - `to` cannot be the zero address. - the caller must have a balance of at least `amount`."
      },
      "transferFrom(address,address,uint256)": {
        "details": "See {IERC20-transferFrom}. Emits an {Approval} event indicating the updated allowance. This is not required by the EIP. See the note at the beginning of {ERC20}. NOTE: Does not update the allowance if the current allowance is the maximum `uint256`. Requirements: - `from` and `to` cannot be the zero address. - `from` must have a balance of at least `amount`. - the caller must have allowance for ``from``'s tokens of at least `amount`."
      }
    },
    "version": 1
  },
  "userdoc": {
    "kind": "user",
    "methods": {},
    "version": 1
  }
}